:4000000000800020210400001904000019040000190400001904000019040000000000000000000000000000000000001904000019040000000000001904000019040000F6
:4000400019040000190400001904000019040000190400001904000019040000190400001904000019040000190400001904000019040000190400001904000019040000B0
:400080001904000019040000190400001904000019040000190400001904000019040000190400001904000019040000190400001904000019040000190400001904000070
:4000C0002022020002008000000F0F000F000000000F0F000F000000020000002000000C090000000000060C000000000000000090B583B000AF00F083FB00F01DFB00F00A
:400100000BFB00F0EBF84FF02A0000F0F5FA00F045FC4FF00003FB714FF04B0000F05EF94FF0000000F04AFC0346002B01D000F035FC00F043F903461C4600F061F90346A9
:400140009C4242D100F054FC0346DBB2BB71FB79012B08D100F0B2F80346002B35D14FF00003FB7131E0FB79022B21D1BB79662B0BD8BB79502B08D94FF0030000F0BCFA4D
:40018000494B184600F026FB1FE0BB79972B0BD9BB79B32B08D84FF0810000F0ADFA434B184600F017FB10E04FF00003FB710CE0BB79802B09D9BB79852B06D84FF00003DD
:4001C000FB714FF0000000F097FA00F077F80346002B11D0FB79002B0ED14FF0FF0000F08BFA334B184600F0F5FA4FF00103FB714FF0000000F0D0F8BB79B42B16D9FB7917
:40020000002B13D14FF08E0000F076FA294B184600F0E0FA274B184600F0DCFA4FF00303FB714FF0000000F0B7F879E7BB794F2B15D8BB79002B12D0FB79002B0FD14FF0C7
:400240002A0000F059FA1C4B184600F0C3FA4FF00303FB714FF0000000F09EF860E7BB79662B0DD8BB79502B0AD9FB79002B07D14FF00203FB714FF0000000F08DF84FE795
:40028000BB79972B7FF64CAFBB79B32B3FF648AFFB79002B7FF444AF4FF00203FB714FF0000000F079F83BE77C0F0000840F0000900F00009C0F0000A80F000080B400AF21
:4002C000054B1B78DBB203F020034FEA5313DBB21846BD4680BC70470151004080B500AF214B1B78002B35D11F4A4FF0010313701E4A1E4B1B78DBB203F0010313701C4A52
:400300001B4B1B78DBB203F0F1031370184A184B1B78DBB243F00103DBB213704FF04B0000F05CF84FF0000000F036F84FF0000000F022F80F4A0F4B1B78DBB243F0010323
:40034000DBB213700A4A0A4B1B78DBB243F00103DBB21370054A054B1B78DBB243F00103DBB21370BD4680BDC880FF1F004F0040014F0040A343004080B483B000AF03460D
:40038000FB71044AFB79137007F10C07BD4680BC7047C046084F004080B485B000AF0346FB71FB79FB81044AFB89138007F11407BD4680BC7047C046044F004080B400AF47
:4003C000044B1B78044B1B78DBB21846BD4680BC7047C046044F0040064F004080B485B000AF0346FB71FB79FB81044AFB89138007F11407BD4680BC7047C046024F004068
:4004000080B400AF034B1B78DBB21846BD4680BC7047C046024F004080B400AFFEE7C04680B584B000AF224B1B78DBB243F00103FB731F4AFB7B13701E4B3B601E4B7B60BE
:400440000BE03B681A687B681A607B6803F104037B603B6803F104033B607A68174B9A42EFD31C481C494FF000028842B8BF40F8042BFADB124B134A1A604FF00003BB6023
:4004800008E0B968104A114B42F82130BB6803F10103BB60BB681F2BF3D90D4A0A4B136000F098FC00F01AF8FFF722FEFEE7C046E846004074120000C880FF1FC880FF1F1D
:4004C0000CED00E00004FA050080FF1F1904000008ED00E0C880FF1FDC80FF1F80B483B000AF174A4FF07F031370164A6FF07F0313704FF07F03FB710FE0FB794FEAC303A2
:4005000003F1804202F5F042FB7903F1FF33DBB21370FB7903F1FF33FB71FB79002BECD1FB794FEAC30303F1804303F5F0434FF000021A7007F10C07BD4680BC7047C046A9
:40054000D180FF1FD080FF1F80B487B000AFF860B9607A60FB687B610BE07B6803F1FF337B60FA68BB68DBB21370FB6803F10103FB607B68002BF0D17B69184607F11C07B4
:40058000BD4680BC7047C04680B487B000AFF860B9607A60FB683B61BB687B610FE07B6803F1FF337B607B691B783A6913703B6903F101033B617B6903F101037B617B6899
:4005C000002BECD1FB68184607F11C07BD4680BC7047C04680B400AF0D4A0D4B1B78DBB243F04003DBB213700A4A0A4B1B78DBB243F04003DBB21370074A074B1B78DBB2F1
:4006000043F01003DBB21370BD4680BC7047C046A0430040B0430040C243004080B485B000AF03463960FB710D4B1B68FB60FB6803F14002FB794FEA830313441B68BB6070
:40064000FB6803F14002FB794FEA83031A443B681360BB68184607F11407BD4680BC704708ED00E080B483B000AF03460A46FB711346BB71FB7903F1604202F56442BB7960
:400680004FEA4313DBB2137007F10C07BD4680BC7047C04680B485B000AF0346FB71084BFB60FB7903F01F024FF0010303FA02F31A46FB681A6007F11407BD4680BC704716
:4006C00080E200E080B485B000AF786039603B68FB607A683B7B13707B6803F101027B7B13707B6803F10202BB7B137007F11407BD4680BC7047C04680B483B000AF0346C1
:40070000FB71044AFB79137007F10C07BD4680BC7047C0467A64004080B400AF054A054B1B78DBB243F00403DBB21370BD4680BC7047C046A243004080B400AF134B1B7802
:40074000002B17D1114A4FF001031370104A4FF0070313700F4A4FF0480313700E4A4FF0000313700D4A0D4B1B78DBB243F01003DBB213700A4A0A4B1B78DBB243F0020376
:40078000DBB21370BD4680BC7047C046D480FF1F29640040396400408A6400409A640040A243004080B483B000AF0346FB71074B1B78DBB203F00403002BF8D1044AFB7993
:4007C000137007F10C07BD4680BC70476A6400404A64004080B582B000AF786008E07B681A787B6803F101037B601046FFF7DAFF7B681B78002BF2D107F10807BD4680BDA8
:4008000080B582B000AF2D4B1B78002B34D12B4A4FF0010313704FF0100000F053F94FF00C004FF00701FFF71DFF4FF00C002449FFF7F4FE234B1B78FB71FB7943F008033E
:40084000FB71204AFB7913701F4A1F4B1B78DBB243F00603DBB213704FF0080000F070F81A4A1A4B1B78DBB243F04003DBB213704FF0010000F032F8154A154B1B78DBB225
:4008800043F00103DBB2137000F00CF9114A114B1B78DBB243F00803DBB213700E4A0E4B1B78DBB243F00103DBB213704FF00C00FFF7F0FE07F10807BD4680BDD680FF1FD5
:4008C000990A0000005900400159004003590040A2430040275B0040AB43004080B485B000AF0346FB7197F90730012B0BD14FF01803FB730F4A0F4B1B78DBB243F0010303
:40090000DBB213700AE04FF01803FB73094A094B1B78DBB243F00103DBB21370064AFB7B1370064A4FF00003137007F11407BD4680BC7047035900400659004007590040A5
:4009400080B584B000AF0346FB71FB793B603B680A2B0AD03B680C2B03D03B68082B08D00AE06FF03F03FB7306E06FF07F03FB7302E04FF04003FB73FB7B43F00403FB7370
:40098000054AFB7B1370FB79184600F03DF807F11007BD4680BDC0460259004080B400AF054A054B1B78DBB243F00103DBB21370BD4680BC7047C0460059004080B485B021
:4009C00000AF0346FB71094B1B78DBB203F00103FB73FB7B012B02D0FB79002BF3D0FB7B184607F11407BD4680BC70470159004080B400AF034B1B78DBB25BB21846BD46AE
:400A000080BC7047A05B004080B485B000AF0346FB7140F6FF73BB604FF40063FB81FB790A2B07D1BB684FEA9303BB60FB894FEA9303FB81FB79082B07D1BB684FEA131378
:400A4000BB60FB894FEA1313FB81B9680B464FEA83024FEA4213C2EB03030B444FEAC303BB60BB684FEA9302084BA3FB02134FEA93139BB2064A1380064A4FF000031380F7
:400A800007F11407BD4680BC7047C046F961B611DA80FF1FD880FF1F80B400AFBD4680BC7047C04680B400AF054A054B1B78DBB243F00103DBB21370BD4680BC7047C04654
:400AC000A243004080B485B000AF0346FB710A4B1B78FB73FB7B03F00703FB73FA7BFB7942EA0303FB73044AFB7B137007F11407BD4680BC7047C0468240004080B485B083
:400B000000AF4FF000037B604FF000033B602EE03A681B4B53F82230BB60BB68FB73BB6823F0FF03BB6012E07A68164B13F812301A46BB68134419467B68124A4FEA4303E1
:400B400013445B780B707B6803F101037B60FB7B002B0CBF00230123DAB2FB7B03F1FF33FB73002AE0D13B6803F101033B603B68182BCDD907F11407BD4680BC7047C04625
:400B8000F00F00005410000080B485B000AF786039607B68FB6007E0FA684FF000031370FB6803F10103FB603B68002B0CBF00230123DAB23B6803F1FF333B60002AEBD191
:400BC00007F11407BD4680BC7047C04680B487B000AFF860B9607A60FB683B61BB687B610BE07B691B783A6913703B6903F101033B617B6903F101037B617B68002B0CBF32
:400C000000230123DAB27B6803F1FF337B60002AE7D107F11C07BD4680BC704780B584B000AF07F10803FB6035483649FFF74AFD35483649FFF746FD35483649FFF742FDF5
:400C4000354A4FF002031370344A4FF008031370334A4FF003031370324A334B1B78DBB21370324A4FF0080313802C4A4FF0080313702F4A41F2510313804FF00003FB7124
:400C80004FF49873BB6013E0FB79DBB24FEA4303DAB2284B1B78DBB203F0010342EA0303DBB203F00303FB71BB6803F1FF33BB60FB681B68002B03D0FB79DBB2032BE3D1F3
:400CC0001D4A40F2031313801B4A4FF0000313701A4A4FF000031370194A4FF048031370184A4FF002031370174A174B1B78DBB243F00703DBB2137007F11007BD4680BD47
:400D0000804000400100180084400040260019008840004014341900004300400040004000420040A1460040080100492242004020420040254200400440004006400040F9
:400D40000840004001400040A243004080B400AF0D4A6FF07F0313700C4A4FF0080313700B4A4FF0400313700A4A6FF07F031370094A4FF020031370084A4FF044031370DF
:400D8000BD4680BC7047C0460D5100406C58004001590040205B0040235B00407658004080B400AF094A094B1B78DBB243F00203DBB21370064A064B1B78DBB243F0020389
:400DC000DBB21370BD4680BC7047C046035001401350014080B582B000AF72B6504A4FF0400313704F4A4FF0000313704E4A4FF0000313704D4A4D4B1B78DBB243F0010391
:400E0000DBB213704FF00003FB702EE0FB784FEA43024FEA8203C2EB03031A46444B13447B607A68117853784FEA032343EA010193784FEA034343EA0101D3784FEA0363FD
:400E400043EA010319467B681A795B794FEA032343EA02039BB208464FF000011A46FFF773FBFB7803F10103FB70FB78092BCDD9FFF744FE2F4830494FF00702FFF7A6FE3B
:400E80002E484FF00701FFF77FFE2D482D494FF00702FFF79BFE2C484FF00701FFF774FE2A482B494FF00702FFF790FE29484FF00701FFF769FE28484FF00701FFF764FE47
:400EC00026484FF00601FFF75FFE25484FF00701FFF75AFEFFF764FFFFF77CFB214822494FF00802FFF750FB204821494FF00802FFF74AFB1F4820494FF00802FFF744FB21
:400F0000074A4FF000031370FFF788FE044A4FF040031370FFF71AFF07F10807BD4680BD004800401070004020700040E8460040B40F000000520040D80000000852004029
:400F400010520040DF0000001852004020520040E60000002852004030520040605200407852004002510040C000000022510040C800000042510040D0000000566F6C553F
:400F8000700A0000566F6C646F776E0A00000000706C61792F70617573650A00507265547261636B0A0000004E657874547261636B0A0000004F00400B00105100401000A8
:400FC000305100401000505100402000C05100401000F0510040100000000140001000140140000800400140000A004C01400002024F0040015B004001640040010501404C
:401000000107014011080140100901403B0A0140370B01400E0C01400A0D0140061901400B1A0140121B01400241014005420140014301400244014009450140094601408C
:4010400005470140064C01400E4D014006500140015101400120091B27848A0FE202EC80C003C715C830C9FFCA07CBFFCC40CD20CEF0CF05D008DA04DD01E040E1A8E240CD
:40108000E32041085004520253049201940897089D08A024A108A320A704AF40B708D002EC8200800194032B0409052006100708082A09FC0A440B020D1810621188120536
:4010C0001354140216401A201D032452260429052B683007311F32383380348035603640371F3808398A3B203E503F044054410345E046CB470C481E49FF4AFF4BFF4EF09A
:401100004F4450085401580459045A095B045C115D1962C064406502001201080A800B281308181019801A801B222108228023482B043280330238983A0140104302480223
:401140004902504052085310582259825A0868256A0171A073A07B047C207E088002820192089C029FA0A5A0AB50B302C00EC20EC404CA04CC09CE0FD003D208D60FDE0498
:40118000E206E804EC0198029C01A804AC08AD01B008B204B301B402B601BE55BF04D804D90409A013A01A201B52220428028E10C203C403CA0892019D08A024A202A70471
:4011C000B72004020C011C08240430043201340836023E5158045C01000802020A01102019081B6687228F4092019D08A024A202A704C005C201C404E008E4081308C410D7
:40120000300884089B08CC40E240B3085404D4025002520855805C408C40A404D407D604E0022A1080048610A404A980AA08B002CA08EC01A120AC04B120B404EC03312086
:401240009002A120B401CC08E802400441104C024F20500151105401571084038C049002D407D604E402000201010C020D0110021C0203030000000000000000000000004E
:40128000000000000000000000000000000000000000000000000000000000000000000000000000000000000000000000000000000000000000000000000000000000002E
:4012C00000000000000000000000000000000000000000000000000000000000000000000000000000000000000000000000000000000000000000000000000000000000EE
:4013000000000000000000000000000000000000000000000000000000000000000000000000000000000000000000000000000000000000000000000000000000000000AD
:40134000000000000000000000000000000000000000000000000000000000000000000000000000000000000000000000000000000000000000000000000000000000006D
:0200000480007A
:0200000490006A
:0400000000000004F8
:0200000490105A
:0400000000000000FC
:0200000490501A
:0C00000000010E13C06901010E1A6F19F7
:0200000490303A
:02000000AEB0A0
:0200000490402A
:4000000000000000000000000000000000000000000000000000000000000000000000000000000000000000000000000000000000000000000000000000000000000000C0
:400040000000000000000000000000000000000000000000000000000000000000000000000000000000000000000000000000000000000000000000000000000000000080
:400080000000000000000000000000000000000000000000000000000000000000000000000000000000000000000000000000000000000000000000000000000000000040
:4000C0000000000000000000000000000000000000000000000000000000000000000000000000000000000000000000000000000000000000000000000000000000000000
:00000001FF
